:02000000EC2BE7
:0400060000000800EE
:10000A00103083120313FD00FD0B092800000800BD
:10001A00083083120313FC002330FD00FD0B132864
:06002A00FC0B1328080086
:0E003000F201F101F001F801F30100300800C7
:10003E0083120313F801F9011030FC00710DF80D55
:10004E00F90D7408F8027508031C750FF9020318F0
:10005E0037287408F80775080318750FF907031089
:0A006E00F00DF10DFC0B2528080031
:1000780083160313C51B432883128711452883124F
:1000880087158316451B4B28831207114D288312A9
:1000980007158316C51A532883128710552883120B
:1000A80087148316451A5B28831207105D2883126C
:1000B80007146A1861280716622807128716032092
:1000C80087128316C5196B28831287116D2883122E
:1000D800871583164519732883120711752883120B
:1000E80007158316C5187B28831287107D2883126D
:1000F80087148316451883288312071085288312CE
:1001080007146A18892807168A28071287160320F1
:0E01180087126A1C91280D20922805200800ED
:100126007B15FB1F9D280130F300F201F101F00160
:08013600FA0DF20CFF30080085
:08013E00FA1FF2130030080063
:06014600FB15FF3008006C
:10014C00831203136A1083164008C5003C206A14FE
:02015C00080099
:10015E00A0017208031DC4287108F2007008F10096
:10016E00F001A0157208031DC4287108F200F101F8
:10017E00A011201672080319D2282008F302031DBD
:10018E00031CD6280310F21BDA28F00DF10DF20D28
:10019E00F30BCA28D6280130FC001820DD280230C7
:0E01AE00FC009320DD280430FC009F20080098
:1001BC007B14FB1FE928F201FA1FFF30F200F1005B
:0A01CC00F000FA0DF20CFF300800FD
:0E01D6008312031369088A006808820008007B
:1001E40083160313C301053043020318002943088F
:1001F4004207840020308000C30AF52843084207E0
:1002040084008001C30343084207C4000A30F40099
:10021400F5014008F0004108F1001F207808F000C3
:100224007908F1003030F007831644088400700820
:1002340080000A30F400F5014008F0004108F100A4
:100244001F2070088316C0007108C10000307106B9
:10025400031D2E2900307006031D31293329C303E1
:040264000529080060
:10026800FB14FB1F3E29FF30F300F200F100F00001
:08027800FA0DF20CFF30080042
:1002800083120313FB01FA01F9018030F800F10C2D
:10029000F00C031C54297408F90775080318750F2E
:1002A000FA070318FB0A0310F01F5C297408FA0709
:1002B00075080318750FFB07FB0CFA0CF90CF80C0A
:1002C000031C47297B08F3007A08F2007908F10043
:0602D0007808F0000800B0
:1002D60083160313BC01BD013708BE003808BF00F2
:1002E60080303806F00080307002031D7C29003013
:1002F600370203188A290130BC000030BD003708D8
:10030600003CBE003808031C013EBF01BF023E0888
:10031600C0003F08C1003908C200F2200630BA000A
:100326000030BB003B08003C031D9B293A08003CFB
:100336000318B6293A083907F20001303A02F000EC
:100346000030031C013E3B02F100700839078400AF
:100356000008F00072088400700880000130BA02BC
:10036600031CBB03952939088400203080003C0813
:100376003D040319D429BA01BB013A0839078400A0
:100386000008203A031DCB29BA0A0319BB0AC02963
:100396000130BA02031CBB033A08390784002D302A
:0403A60080000800CB
:1003AA00831203137008F8007108F000F101F201DA
:1003BA00F301FB01FC019630F300FA01F01FEB296F
:1003CA00F809F009F80A0319F00AFA177008F10097
:0C03DA007808F000F801F201AF200800E4
:1003E600831203137408003A031D0E2A7508003A97
:1003F600031D0E2A7608003A031D0E2A7708003AD6
:10040600031D0E2AFF30F000FF30F1007F30F200AE
:10041600FF30F300A92A83120313770803199D2AD4
:1004260073080319A02A720876068039FA00F217B3
:10043600F617A0017208F8007108FC007008FD00AC
:100446007408FD027508031C750FFC027608031C70
:10045600760FF802F801FC01FD01031C392A03108E
:10046600F20CF10CF00CF80C0130A0007708F30246
:10047600031C432A7E302007F3070318A32A482AC1
:100486007E302007F307031CA62A1830FA07FD0D55
:10049600FC0DF80DF00DF10DF20DA00D7408F00233
:1004A6007508031C750FF1027608031C760FF2021D
:1004B600760DA004201C612A7D146C2A7408F007AE
:1004C60075080318750FF10776080318760AF20700
:1004D6007D10FA031F307A05031D4A2A7B1B7D1CFB
:1004E600932A0310F00DF10DF20DA00D7408F00221
:1004F6007508031C750FF1027608031C760FF202CD
:10050600760D20040139FD070318FC0A0319F80AC1
:10051600031D932AF80CFC0CFD0CF30A0319A32AFD
:10052600FA1FF8137808F2007C08F1007D08F00045
:100536000030A82A0130A320A82A02301820A82AB1
:0E05460004303421A82A083093200000080059
:1005540083160313B701B80183126F08F2006F0802
:10056400F300720884000008203A031DBF2A831692
:1005740037083804031DBF2ACD2A83160130B7007B
:100584000030B800720884000008F000730884008A
:1005940070088000F30A7208F100F20A71088400FE
:1005A4000008003A031DB32A83126F08F000080004
:1005B400EB208A110A128000840AE80A0319E90A66
:0805C400F003031DDA2A080010
:1005CC00F82A803083160313B7000B2BC030B7000A
:1005DC000B2B9430B7000B2BD430B7000B2B803087
:1005EC00B7000B2B831603133708013A0319E72ABC
:1005FC003708023A0319EC2A3708033A0319EF2A91
:10060C003708043A0319F22AF52A3803F0003708A0
:10061C00F0077008B7007008C5003C206A10EF01A5
:10062C006F0883163907840000080319272B8312DF
:10063C006F088316390784000008C000A620EF0A53
:08064C00162B83126A1408004A
:1006540083120313FB0173080319672B7208FA0052
:10066400F2178E30F302F31F6A2BF309F30A0830F2
:100674007302031C4D2BF300F10D7208F100F2011B
:1006840008307302031C4D2BF300F10DF1017308C4
:10069400031D0310552B73080319552B0310F20C7B
:1006A400F10CF30B502B7B1B711C5F2B031C5F2B7A
:1006B400F10A0319F20AF21B762BFA1F792BF209BD
:1006C400F109F10A0319F20A792BF201F101792BEC
:1006D4007B14FB1F7C2BF201FA1F7C2BFF30F200F2
:1006E400F100FA0DF20C7C2B0130FC007E2B003063
:1006F400FC007E2BFF30FC00FC080319822BDE205B
:0A0704007108F0007208F10008000F
:10070E0083160313B701370883126F07840000089E
:10071E0003199D2B8316370883126F078400000878
:0E072E008316C000A6208316B70A8A2B080087
:10073C0083160313871207120710871007118711EE
:10074C0083128712071287110711871007100D20CB
:10075C000D200D20871407148716032087120D20F7
:10076C008716032087120D208716032087120D2071
:10077C0007108716032087120D2087160320871277
:10078C00871087158716032087120D2087110714F1
:10079C0087160320871207108716032087120D2057
:1007AC0087160320871207148716032087120D2043
:1007BC00071087160320871287150715871407144F
:0C07CC008716032087120D206A14080015
:1007D800DC259E2301308316C5003C200C3083168F
:1007E800C5003C2012308316860087010130B7000F
:1007F8000130B8002130B900E62202308316B70074
:100808000130B8005F30B900E6220630FB00133033
:10081800FC00AD30FD00FD0B0F2CFC0B0F2CFB0B6F
:100828000F2C0000000001308316C5003C2010305A
:100838009000861C642D8F018E0106140330FD0084
:10084800FD0B242C0610061A2A2C272C1014061E21
:100858002E2C2B2C10100F08F100F0010E08F004BC
:100868000030F1047008EB007108EC00D521AE30BF
:10087800F4004730F5006B30F6008330F700F321C1
:100888002A237008EB007108EC007008013EEB00A9
:1008980000300318013E7107EC000D30FC00FB30FE
:1008A800FD00FD0B552CFC0B552C000000008F01A2
:1008B8008E0106140330FD00FD0B602C0610061A8D
:1008C800662C632C1014061E6A2C672C10100F0857
:1008D800F100F0010E08F0040030F1047008ED009A
:1008E8007108EE00D521AE30F4004730F5006B30CA
:1008F800F6008330F700F3212A237008ED00710811
:10090800EE007008013EF20000300318013E710746
:10091800F3007208ED007308EE0080307306F000F3
:1009280080306C067002031D9B2C6B087202031842
:10093800B52C6D086B02F0006E08031C013E6C02BA
:10094800F1000630F4000030F5004021D521700890
:100958008316AC007108AD007208AE007308AF00D2
:10096800CD2C83126B086D02F0006C08031C013E4D
:100978006E02F1000630F4000030F5004021D52168
:1009880070088316AC007108AD007208AE007308D9
:10099800AF00803083126C06F00080307002031DB7
:1009A800D72C02306B02031C4D2D8030013AF00029
:1009B80080306C067002031DE32C6B08903C031C0E
:1009C8004D2D80306E06F00080307002031DEE2C35
:1009D80002306D02031C4D2D8030013AF00080304A
:1009E8006E067002031DFA2C6D08903C031C4D2DF9
:1009F8006D088316B70083126E088316B800B030EE
:100A0800B9006B21B0308312EF00AA22013083169F
:100A1800C5003C2002308316B7000130B800A03072
:100A2800B900E622B030EF008723023083160313A3
:100A3800B7000F30B8003730B900E62283162C080B
:100A4800F0002D08F1002E08F2002F08F3002A23E9
:100A580070088316B7007108B800B030B9006B2170
:100A6800B0308312EF00AA2201308316B70001309C
:100A7800B8002E30B900E622B030EF0087230130ED
:100A880083160313B7000B30B8003A30B900E622DA
:100A9800592D01308316C5003C2001308316B7005C
:100AA8000130B8005230B900E6228230FC00DD3057
:100AB800FD00FD0B5D2DFC0B5D2D00000000822D5F
:100AC8006B088316B70083126C088316B800B03021
:100AD800B9006B210130C5003C2001308316B700F6
:100AE8000130B8004130B900E6221A30FC00F83075
:100AF800FD00FD0B7D2DFC0B7D2D00001D2C832D95
:100BB80021308400473083120313F0008930E800A5
:100BC8000530E900DA22A03084000C300313F0006D
:0C0BD800D030E8000530E900DA22080007
:100B120044346534763465346C346F3470346534FF
:0A0B22006434203442347934003486
:100B2C005334703465346534643420343D342034AB
:020B3C00003483
:060B3E0063346D34003445
:0E0B440020346D342F346D3469346E34003437
:100B520050347234653473347334203474346834EA
:100B62006534203462347534743474346F346E34C2
:020B720000344D
:100B74004F347534743420346F3466342034523432
:0A0B840061346E34673465340034C8
:100B8E004334723461347A347934473465346F3493
:020B9E00003421
:100BA000443469347334743461346E34633465347A
:080BB00020343D3420340034F0
:02400E00C92FB8
:00000001FF
